{
  "_format": "hh-sol-artifact-1",
  "contractName": "BeachBumNFT",
  "sourceName": "contracts/BeachBumNFT.sol",
  "abi": [
    {
      "inputs": [],
      "stateMutability": "nonpayable",
      "type": "constructor"
    },
    {
      "anonymous": false,
      "inputs": [
        {
          "indexed": true,
          "internalType": "address",
          "name": "owner",
          "type": "address"
        },
        {
          "indexed": true,
          "internalType": "address",
          "name": "approved",
          "type": "address"
        },
        {
          "indexed": true,
          "internalType": "uint256",
          "name": "tokenId",
          "type": "uint256"
        }
      ],
      "name": "Approval",
      "type": "event"
    },
    {
      "anonymous": false,
      "inputs": [
        {
          "indexed": true,
          "internalType": "address",
          "name": "owner",
          "type": "address"
        },
        {
          "indexed": true,
          "internalType": "address",
          "name": "operator",
          "type": "address"
        },
        {
          "indexed": false,
          "internalType": "bool",
          "name": "approved",
          "type": "bool"
        }
      ],
      "name": "ApprovalForAll",
      "type": "event"
    },
    {
      "anonymous": false,
      "inputs": [
        {
          "indexed": false,
          "internalType": "address",
          "name": "sender",
          "type": "address"
        },
        {
          "indexed": false,
          "internalType": "uint256",
          "name": "tokenId",
          "type": "uint256"
        }
      ],
      "name": "NewBeachBumNFTMinted",
      "type": "event"
    },
    {
      "anonymous": false,
      "inputs": [
        {
          "indexed": true,
          "internalType": "address",
          "name": "from",
          "type": "address"
        },
        {
          "indexed": true,
          "internalType": "address",
          "name": "to",
          "type": "address"
        },
        {
          "indexed": true,
          "internalType": "uint256",
          "name": "tokenId",
          "type": "uint256"
        }
      ],
      "name": "Transfer",
      "type": "event"
    },
    {
      "inputs": [
        {
          "internalType": "address",
          "name": "to",
          "type": "address"
        },
        {
          "internalType": "uint256",
          "name": "tokenId",
          "type": "uint256"
        }
      ],
      "name": "approve",
      "outputs": [],
      "stateMutability": "nonpayable",
      "type": "function"
    },
    {
      "inputs": [
        {
          "internalType": "address",
          "name": "owner",
          "type": "address"
        }
      ],
      "name": "balanceOf",
      "outputs": [
        {
          "internalType": "uint256",
          "name": "",
          "type": "uint256"
        }
      ],
      "stateMutability": "view",
      "type": "function"
    },
    {
      "inputs": [
        {
          "internalType": "uint256",
          "name": "tokenId",
          "type": "uint256"
        }
      ],
      "name": "getApproved",
      "outputs": [
        {
          "internalType": "address",
          "name": "",
          "type": "address"
        }
      ],
      "stateMutability": "view",
      "type": "function"
    },
    {
      "inputs": [],
      "name": "getMintNumbers",
      "outputs": [
        {
          "internalType": "uint256[]",
          "name": "",
          "type": "uint256[]"
        }
      ],
      "stateMutability": "view",
      "type": "function"
    },
    {
      "inputs": [
        {
          "internalType": "address",
          "name": "owner",
          "type": "address"
        },
        {
          "internalType": "address",
          "name": "operator",
          "type": "address"
        }
      ],
      "name": "isApprovedForAll",
      "outputs": [
        {
          "internalType": "bool",
          "name": "",
          "type": "bool"
        }
      ],
      "stateMutability": "view",
      "type": "function"
    },
    {
      "inputs": [],
      "name": "makeBigLeftNFT",
      "outputs": [],
      "stateMutability": "nonpayable",
      "type": "function"
    },
    {
      "inputs": [],
      "name": "makeBoardNFT",
      "outputs": [],
      "stateMutability": "nonpayable",
      "type": "function"
    },
    {
      "inputs": [],
      "name": "makeHugeBarrelNFT",
      "outputs": [],
      "stateMutability": "nonpayable",
      "type": "function"
    },
    {
      "inputs": [],
      "name": "makePeakNFT",
      "outputs": [],
      "stateMutability": "nonpayable",
      "type": "function"
    },
    {
      "inputs": [],
      "name": "makePipelineNFT",
      "outputs": [],
      "stateMutability": "nonpayable",
      "type": "function"
    },
    {
      "inputs": [],
      "name": "makeSolitaryNFT",
      "outputs": [],
      "stateMutability": "nonpayable",
      "type": "function"
    },
    {
      "inputs": [],
      "name": "makeTwoFriendsNFT",
      "outputs": [],
      "stateMutability": "nonpayable",
      "type": "function"
    },
    {
      "inputs": [],
      "name": "makeWaterlineNFT",
      "outputs": [],
      "stateMutability": "nonpayable",
      "type": "function"
    },
    {
      "inputs": [],
      "name": "name",
      "outputs": [
        {
          "internalType": "string",
          "name": "",
          "type": "string"
        }
      ],
      "stateMutability": "view",
      "type": "function"
    },
    {
      "inputs": [
        {
          "internalType": "uint256",
          "name": "tokenId",
          "type": "uint256"
        }
      ],
      "name": "ownerOf",
      "outputs": [
        {
          "internalType": "address",
          "name": "",
          "type": "address"
        }
      ],
      "stateMutability": "view",
      "type": "function"
    },
    {
      "inputs": [
        {
          "internalType": "address",
          "name": "from",
          "type": "address"
        },
        {
          "internalType": "address",
          "name": "to",
          "type": "address"
        },
        {
          "internalType": "uint256",
          "name": "tokenId",
          "type": "uint256"
        }
      ],
      "name": "safeTransferFrom",
      "outputs": [],
      "stateMutability": "nonpayable",
      "type": "function"
    },
    {
      "inputs": [
        {
          "internalType": "address",
          "name": "from",
          "type": "address"
        },
        {
          "internalType": "address",
          "name": "to",
          "type": "address"
        },
        {
          "internalType": "uint256",
          "name": "tokenId",
          "type": "uint256"
        },
        {
          "internalType": "bytes",
          "name": "_data",
          "type": "bytes"
        }
      ],
      "name": "safeTransferFrom",
      "outputs": [],
      "stateMutability": "nonpayable",
      "type": "function"
    },
    {
      "inputs": [
        {
          "internalType": "address",
          "name": "operator",
          "type": "address"
        },
        {
          "internalType": "bool",
          "name": "approved",
          "type": "bool"
        }
      ],
      "name": "setApprovalForAll",
      "outputs": [],
      "stateMutability": "nonpayable",
      "type": "function"
    },
    {
      "inputs": [
        {
          "internalType": "bytes4",
          "name": "interfaceId",
          "type": "bytes4"
        }
      ],
      "name": "supportsInterface",
      "outputs": [
        {
          "internalType": "bool",
          "name": "",
          "type": "bool"
        }
      ],
      "stateMutability": "view",
      "type": "function"
    },
    {
      "inputs": [],
      "name": "symbol",
      "outputs": [
        {
          "internalType": "string",
          "name": "",
          "type": "string"
        }
      ],
      "stateMutability": "view",
      "type": "function"
    },
    {
      "inputs": [
        {
          "internalType": "uint256",
          "name": "tokenId",
          "type": "uint256"
        }
      ],
      "name": "tokenURI",
      "outputs": [
        {
          "internalType": "string",
          "name": "",
          "type": "string"
        }
      ],
      "stateMutability": "view",
      "type": "function"
    },
    {
      "inputs": [
        {
          "internalType": "address",
          "name": "from",
          "type": "address"
        },
        {
          "internalType": "address",
          "name": "to",
          "type": "address"
        },
        {
          "internalType": "uint256",
          "name": "tokenId",
          "type": "uint256"
        }
      ],
      "name": "transferFrom",
      "outputs": [],
      "stateMutability": "nonpayable",
      "type": "function"
    }
  ],
  "bytecode": "0x60806040523480156200001157600080fd5b506040518060400160405280600b81526020017f426561636842756d4e46540000000000000000000000000000000000000000008152506040518060400160405280600681526020017f5351554152450000000000000000000000000000000000000000000000000000815250816000908051906020019062000096929190620001cf565b508060019080519060200190620000af929190620001cf565b505050620000fd6040518060400160405280601e81526020017f54686973206973206d79204e465420636f6e74726163742e20576f61682100008152506200010360201b620015751760201c565b620003ac565b620001a3816040516024016200011a9190620002c0565b6040516020818303038152906040527f41304fac000000000000000000000000000000000000000000000000000000007bffffffffffffffffffffffffffffffffffffffffffffffffffffffff19166020820180517bffffffffffffffffffffffffffffffffffffffffffffffffffffffff8381831617835250505050620001a660201b60201c565b50565b60008151905060006a636f6e736f6c652e6c6f679050602083016000808483855afa5050505050565b828054620001dd9062000336565b90600052602060002090601f0160209004810192826200020157600085556200024d565b82601f106200021c57805160ff19168380011785556200024d565b828001600101855582156200024d579182015b828111156200024c5782518255916020019190600101906200022f565b5b5090506200025c919062000260565b5090565b5b808211156200027b57600081600090555060010162000261565b5090565b60006200028c82620002e4565b620002988185620002ef565b9350620002aa81856020860162000300565b620002b5816200039b565b840191505092915050565b60006020820190508181036000830152620002dc81846200027f565b905092915050565b600081519050919050565b600082825260208201905092915050565b60005b838110156200032057808201518184015260208101905062000303565b8381111562000330576000848401525b50505050565b600060028204905060018216806200034f57607f821691505b602082108114156200036657620003656200036c565b5b50919050565b7f4e487b7100000000000000000000000000000000000000000000000000000000600052602260045260246000fd5b6000601f19601f8301169050919050565b61416880620003bc6000396000f3fe608060405234801561001057600080fd5b50600436106101425760003560e01c806354f71c63116100b857806395d89b411161007c57806395d89b41146102dd578063a22cb465146102fb578063aa9a3a1214610317578063b88d4fde14610321578063c87b56dd1461033d578063e985e9c51461036d57610142565b806354f71c631461024b5780636352211e14610255578063637d55d91461028557806370a082311461028f578063851f68e0146102bf57610142565b80631cfd43801161010a5780631cfd4380146101eb57806323b872dd146101f557806331eda56f1461021157806337c2e8fe1461021b57806342842e0e1461022557806345f4e86a1461024157610142565b806301ffc9a71461014757806306fdde0314610177578063081812fc14610195578063095ea7b3146101c557806314f4662a146101e1575b600080fd5b610161600480360381019061015c919061290b565b61039d565b60405161016e9190613009565b60405180910390f35b61017f61047f565b60405161018c9190613024565b60405180910390f35b6101af60048036038101906101aa919061295d565b610511565b6040516101bc9190612f57565b60405180910390f35b6101df60048036038101906101da91906128cf565b610596565b005b6101e96106ae565b005b6101f361078c565b005b61020f600480360381019061020a91906127c9565b61086a565b005b6102196108ca565b005b6102236109a8565b005b61023f600480360381019061023a91906127c9565b610a86565b005b610249610aa6565b005b610253610b84565b005b61026f600480360381019061026a919061295d565b610c62565b60405161027c9190612f57565b60405180910390f35b61028d610d14565b005b6102a960048036038101906102a49190612764565b610df2565b6040516102b69190613266565b60405180910390f35b6102c7610eaa565b6040516102d49190612fe7565b60405180910390f35b6102e56111a7565b6040516102f29190613024565b60405180910390f35b61031560048036038101906103109190612893565b611239565b005b61031f61124f565b005b61033b60048036038101906103369190612818565b61132d565b005b6103576004803603810190610352919061295d565b61138f565b6040516103649190613024565b60405180910390f35b6103876004803603810190610382919061278d565b6114e1565b6040516103949190613009565b60405180910390f35b60007f80ac58cd000000000000000000000000000000000000000000000000000000007bffffffffffffffffffffffffffffffffffffffffffffffffffffffff1916827bffffffffffffffffffffffffffffffffffffffffffffffffffffffff1916148061046857507f5b5e139f000000000000000000000000000000000000000000000000000000007bffffffffffffffffffffffffffffffffffffffffffffffffffffffff1916827bffffffffffffffffffffffffffffffffffffffffffffffffffffffff1916145b8061047857506104778261160e565b5b9050919050565b60606000805461048e9061351e565b80601f01602080910402602001604051908101604052809291908181526020018280546104ba9061351e565b80156105075780601f106104dc57610100808354040283529160200191610507565b820191906000526020600020905b8154815290600101906020018083116104ea57829003601f168201915b5050505050905090565b600061051c82611678565b61055b576040517f08c379a0000000000000000000000000000000000000000000000000000000008152600401610552906131e6565b60405180910390fd5b6004600083815260200190815260200160002060009054906101000a900473ffffffffffffffffffffffffffffffffffffffff169050919050565b60006105a182610c62565b90508073ffffffffffffffffffffffffffffffffffffffff168373ffffffffffffffffffffffffffffffffffffffff161415610612576040517f08c379a000000000000000000000000000000000000000000000000000000000815260040161060990613226565b60405180910390fd5b8073ffffffffffffffffffffffffffffffffffffffff166106316116e4565b73ffffffffffffffffffffffffffffffffffffffff161480610660575061065f8161065a6116e4565b6114e1565b5b61069f576040517f08c379a000000000000000000000000000000000000000000000000000000000815260040161069690613126565b60405180910390fd5b6106a983836116ec565b505050565b60056106ba60086117a5565b106106fa576040517f08c379a00000000000000000000000000000000000000000000000000000000081526004016106f190613046565b60405180910390fd5b600061072260405160200161070e90612eb7565b6040516020818303038152906040526117b3565b90506000816040516020016107379190612f20565b6040516020818303038152906040529050600061075460076117a5565b90506107603382611971565b61076a818361198f565b6107746007611a03565b61077e6008611a03565b61078781611a19565b505050565b6005610798600a6117a5565b106107d8576040517f08c379a00000000000000000000000000000000000000000000000000000000081526004016107cf90613046565b60405180910390fd5b60006108006040516020016107ec90612f42565b6040516020818303038152906040526117b3565b90506000816040516020016108159190612f20565b6040516020818303038152906040529050600061083260076117a5565b905061083e3382611971565b610848818361198f565b6108526007611a03565b61085c600a611a03565b61086581611a19565b505050565b61087b6108756116e4565b82611a55565b6108ba576040517f08c379a00000000000000000000000000000000000000000000000000000000081526004016108b190613246565b60405180910390fd5b6108c5838383611b33565b505050565b60056108d6600c6117a5565b10610916576040517f08c379a000000000000000000000000000000000000000000000000000000000815260040161090d90613046565b60405180910390fd5b600061093e60405160200161092a90612ecc565b6040516020818303038152906040526117b3565b90506000816040516020016109539190612f20565b6040516020818303038152906040529050600061097060076117a5565b905061097c3382611971565b610986818361198f565b6109906007611a03565b61099a600c611a03565b6109a381611a19565b505050565b60056109b4600f6117a5565b106109f4576040517f08c379a00000000000000000000000000000000000000000000000000000000081526004016109eb90613046565b60405180910390fd5b6000610a1c604051602001610a0890612f0b565b6040516020818303038152906040526117b3565b9050600081604051602001610a319190612f20565b60405160208183030381529060405290506000610a4e60076117a5565b9050610a5a3382611971565b610a64818361198f565b610a6e6007611a03565b610a78600f611a03565b610a8181611a19565b505050565b610aa18383836040518060200160405280600081525061132d565b505050565b6005610ab2600e6117a5565b10610af2576040517f08c379a0000000000000000000000000000000000000000000000000000000008152600401610ae990613046565b60405180910390fd5b6000610b1a604051602001610b0690612ef6565b6040516020818303038152906040526117b3565b9050600081604051602001610b2f9190612f20565b60405160208183030381529060405290506000610b4c60076117a5565b9050610b583382611971565b610b62818361198f565b610b6c6007611a03565b610b76600e611a03565b610b7f81611a19565b505050565b6005610b90600d6117a5565b10610bd0576040517f08c379a0000000000000000000000000000000000000000000000000000000008152600401610bc790613046565b60405180910390fd5b6000610bf8604051602001610be490612ee1565b6040516020818303038152906040526117b3565b9050600081604051602001610c0d9190612f20565b60405160208183030381529060405290506000610c2a60076117a5565b9050610c363382611971565b610c40818361198f565b610c4a6007611a03565b610c54600d611a03565b610c5d81611a19565b505050565b6000806002600084815260200190815260200160002060009054906101000a900473ffffffffffffffffffffffffffffffffffffffff169050600073ffffffffffffffffffffffffffffffffffffffff168173ffffffffffffffffffffffffffffffffffffffff161415610d0b576040517f08c379a0000000000000000000000000000000000000000000000000000000008152600401610d0290613166565b60405180910390fd5b80915050919050565b6005610d2060096117a5565b10610d60576040517f08c379a0000000000000000000000000000000000000000000000000000000008152600401610d5790613046565b60405180910390fd5b6000610d88604051602001610d7490612ea2565b6040516020818303038152906040526117b3565b9050600081604051602001610d9d9190612f20565b60405160208183030381529060405290506000610dba60076117a5565b9050610dc63382611971565b610dd0818361198f565b610dda6007611a03565b610de46009611a03565b610ded81611a19565b505050565b60008073ffffffffffffffffffffffffffffffffffffffff168273ffffffffffffffffffffffffffffffffffffffff161415610e63576040517f08c379a0000000000000000000000000000000000000000000000000000000008152600401610e5a90613146565b60405180910390fd5b600360008373ffffffffffffffffffffffffffffffffffffffff1673ffffffffffffffffffffffffffffffffffffffff168152602001908152602001600020549050919050565b60606000600867ffffffffffffffff811115610eef577f4e487b7100000000000000000000000000000000000000000000000000000000600052604160045260246000fd5b604051908082528060200260200182016040528015610f1d5781602001602082028036833780820191505090505b509050610f2a60086117a5565b81600081518110610f64577f4e487b7100000000000000000000000000000000000000000000000000000000600052603260045260246000fd5b602002602001018181525050610f7a60096117a5565b81600181518110610fb4577f4e487b7100000000000000000000000000000000000000000000000000000000600052603260045260246000fd5b602002602001018181525050610fca600a6117a5565b81600281518110611004577f4e487b7100000000000000000000000000000000000000000000000000000000600052603260045260246000fd5b60200260200101818152505061101a600b6117a5565b81600381518110611054577f4e487b7100000000000000000000000000000000000000000000000000000000600052603260045260246000fd5b60200260200101818152505061106a600c6117a5565b816004815181106110a4577f4e487b7100000000000000000000000000000000000000000000000000000000600052603260045260246000fd5b6020026020010181815250506110ba600d6117a5565b816005815181106110f4577f4e487b7100000000000000000000000000000000000000000000000000000000600052603260045260246000fd5b60200260200101818152505061110a600e6117a5565b81600681518110611144577f4e487b7100000000000000000000000000000000000000000000000000000000600052603260045260246000fd5b60200260200101818152505061115a600f6117a5565b81600781518110611194577f4e487b7100000000000000000000000000000000000000000000000000000000600052603260045260246000fd5b6020026020010181815250508091505090565b6060600180546111b69061351e565b80601f01602080910402602001604051908101604052809291908181526020018280546111e29061351e565b801561122f5780601f106112045761010080835404028352916020019161122f565b820191906000526020600020905b81548152906001019060200180831161121257829003601f168201915b5050505050905090565b61124b6112446116e4565b8383611d9a565b5050565b600561125b600b6117a5565b1061129b576040517f08c379a000000000000000000000000000000000000000000000000000000000815260040161129290613046565b60405180910390fd5b60006112c36040516020016112af90612e8d565b6040516020818303038152906040526117b3565b90506000816040516020016112d89190612f20565b604051602081830303815290604052905060006112f560076117a5565b90506113013382611971565b61130b818361198f565b6113156007611a03565b61131f600b611a03565b61132881611a19565b505050565b61133e6113386116e4565b83611a55565b61137d576040517f08c379a000000000000000000000000000000000000000000000000000000000815260040161137490613246565b60405180910390fd5b61138984848484611f07565b50505050565b606061139a82611678565b6113d9576040517f08c379a00000000000000000000000000000000000000000000000000000000081526004016113d0906131c6565b60405180910390fd5b60006006600084815260200190815260200160002080546113f99061351e565b80601f01602080910402602001604051908101604052809291908181526020018280546114259061351e565b80156114725780601f1061144757610100808354040283529160200191611472565b820191906000526020600020905b81548152906001019060200180831161145557829003601f168201915b505050505090506000611483611f63565b90506000815114156114995781925050506114dc565b6000825111156114ce5780826040516020016114b6929190612e69565b604051602081830303815290604052925050506114dc565b6114d784611f7a565b925050505b919050565b6000600560008473ffffffffffffffffffffffffffffffffffffffff1673ffffffffffffffffffffffffffffffffffffffff16815260200190815260200160002060008373ffffffffffffffffffffffffffffffffffffffff1673ffffffffffffffffffffffffffffffffffffffff16815260200190815260200160002060009054906101000a900460ff16905092915050565b61160b816040516024016115899190613024565b6040516020818303038152906040527f41304fac000000000000000000000000000000000000000000000000000000007bffffffffffffffffffffffffffffffffffffffffffffffffffffffff19166020820180517bffffffffffffffffffffffffffffffffffffffffffffffffffffffff8381831617835250505050612021565b50565b60007f01ffc9a7000000000000000000000000000000000000000000000000000000007bffffffffffffffffffffffffffffffffffffffffffffffffffffffff1916827bffffffffffffffffffffffffffffffffffffffffffffffffffffffff1916149050919050565b60008073ffffffffffffffffffffffffffffffffffffffff166002600084815260200190815260200160002060009054906101000a900473ffffffffffffffffffffffffffffffffffffffff1673ffffffffffffffffffffffffffffffffffffffff1614159050919050565b600033905090565b816004600083815260200190815260200160002060006101000a81548173ffffffffffffffffffffffffffffffffffffffff021916908373ffffffffffffffffffffffffffffffffffffffff160217905550808273ffffffffffffffffffffffffffffffffffffffff1661175f83610c62565b73ffffffffffffffffffffffffffffffffffffffff167f8c5be1e5ebec7d5bd14f71427d1e84f3dd0314c0f7b2291e5b200ac8c7c3b92560405160405180910390a45050565b600081600001549050919050565b606060008251905060008114156117dc576040518060200160405280600081525091505061196c565b600060036002836117ed9190613353565b6117f791906133a9565b600461180391906133da565b905060006020826118149190613353565b67ffffffffffffffff811115611853577f4e487b7100000000000000000000000000000000000000000000000000000000600052604160045260246000fd5b6040519080825280601f01601f1916602001820160405280156118855781602001600182028036833780820191505090505b50905060006040518060600160405280604081526020016140f3604091399050600181016020830160005b868110156119295760038101905062ffffff818a015116603f8160121c168401518060081b905060ff603f83600c1c1686015116810190508060081b905060ff603f8360061c1686015116810190508060081b905060ff603f831686015116810190508060e01b905080845260048401935050506118b0565b50600386066001811461194357600281146119535761195e565b613d3d60f01b600283035261195e565b603d60f81b60018303525b508484525050819450505050505b919050565b61198b82826040518060200160405280600081525061204a565b5050565b61199882611678565b6119d7576040517f08c379a00000000000000000000000000000000000000000000000000000000081526004016119ce90613186565b60405180910390fd5b806006600084815260200190815260200160002090805190602001906119fe9291906125f0565b505050565b6001816000016000828254019250508190555050565b7fee36fcced943596bce756c6332d89305d8c96bba9a622f4aa338286ab12c405a3382604051611a4a929190612fbe565b60405180910390a150565b6000611a6082611678565b611a9f576040517f08c379a0000000000000000000000000000000000000000000000000000000008152600401611a9690613106565b60405180910390fd5b6000611aaa83610c62565b90508073ffffffffffffffffffffffffffffffffffffffff168473ffffffffffffffffffffffffffffffffffffffff161480611b1957508373ffffffffffffffffffffffffffffffffffffffff16611b0184610511565b73ffffffffffffffffffffffffffffffffffffffff16145b80611b2a5750611b2981856114e1565b5b91505092915050565b8273ffffffffffffffffffffffffffffffffffffffff16611b5382610c62565b73ffffffffffffffffffffffffffffffffffffffff1614611ba9576040517f08c379a0000000000000000000000000000000000000000000000000000000008152600401611ba090613086565b60405180910390fd5b600073ffffffffffffffffffffffffffffffffffffffff168273ffffffffffffffffffffffffffffffffffffffff161415611c19576040517f08c379a0000000000000000000000000000000000000000000000000000000008152600401611c10906130c6565b60405180910390fd5b611c248383836120a5565b611c2f6000826116ec565b6001600360008573ffffffffffffffffffffffffffffffffffffffff1673ffffffffffffffffffffffffffffffffffffffff1681526020019081526020016000206000828254611c7f9190613434565b925050819055506001600360008473ffffffffffffffffffffffffffffffffffffffff1673ffffffffffffffffffffffffffffffffffffffff1681526020019081526020016000206000828254611cd69190613353565b92505081905550816002600083815260200190815260200160002060006101000a81548173ffffffffffffffffffffffffffffffffffffffff021916908373ffffffffffffffffffffffffffffffffffffffff160217905550808273ffffffffffffffffffffffffffffffffffffffff168473ffffffffffffffffffffffffffffffffffffffff167fddf252ad1be2c89b69c2b068fc378daa952ba7f163c4a11628f55a4df523b3ef60405160405180910390a4611d958383836120aa565b505050565b8173ffffffffffffffffffffffffffffffffffffffff168373ffffffffffffffffffffffffffffffffffffffff161415611e09576040517f08c379a0000000000000000000000000000000000000000000000000000000008152600401611e00906130e6565b60405180910390fd5b80600560008573ffffffffffffffffffffffffffffffffffffffff1673ffffffffffffffffffffffffffffffffffffffff16815260200190815260200160002060008473ffffffffffffffffffffffffffffffffffffffff1673ffffffffffffffffffffffffffffffffffffffff16815260200190815260200160002060006101000a81548160ff0219169083151502179055508173ffffffffffffffffffffffffffffffffffffffff168373ffffffffffffffffffffffffffffffffffffffff167f17307eab39ab6107e8899845ad3d59bd9653f200f220920489ca2b5937696c3183604051611efa9190613009565b60405180910390a3505050565b611f12848484611b33565b611f1e848484846120af565b611f5d576040517f08c379a0000000000000000000000000000000000000000000000000000000008152600401611f5490613066565b60405180910390fd5b50505050565b606060405180602001604052806000815250905090565b6060611f8582611678565b611fc4576040517f08c379a0000000000000000000000000000000000000000000000000000000008152600401611fbb90613206565b60405180910390fd5b6000611fce611f63565b90506000815111611fee5760405180602001604052806000815250612019565b80611ff884612246565b604051602001612009929190612e69565b6040516020818303038152906040525b915050919050565b60008151905060006a636f6e736f6c652e6c6f679050602083016000808483855afa5050505050565b61205483836123f3565b61206160008484846120af565b6120a0576040517f08c379a000000000000000000000000000000000000000000000000000000000815260040161209790613066565b60405180910390fd5b505050565b505050565b505050565b60006120d08473ffffffffffffffffffffffffffffffffffffffff166125cd565b15612239578373ffffffffffffffffffffffffffffffffffffffff1663150b7a026120f96116e4565b8786866040518563ffffffff1660e01b815260040161211b9493929190612f72565b602060405180830381600087803b15801561213557600080fd5b505af192505050801561216657506040513d601f19601f820116820180604052508101906121639190612934565b60015b6121e9573d8060008114612196576040519150601f19603f3d011682016040523d82523d6000602084013e61219b565b606091505b506000815114156121e1576040517f08c379a00000000000000000000000000000000000000000000000000000000081526004016121d890613066565b60405180910390fd5b805181602001fd5b63150b7a0260e01b7bffffffffffffffffffffffffffffffffffffffffffffffffffffffff1916817bffffffffffffffffffffffffffffffffffffffffffffffffffffffff19161491505061223e565b600190505b949350505050565b6060600082141561228e576040518060400160405280600181526020017f300000000000000000000000000000000000000000000000000000000000000081525090506123ee565b600082905060005b600082146122c05780806122a990613581565b915050600a826122b991906133a9565b9150612296565b60008167ffffffffffffffff811115612302577f4e487b7100000000000000000000000000000000000000000000000000000000600052604160045260246000fd5b6040519080825280601f01601f1916602001820160405280156123345781602001600182028036833780820191505090505b5090505b600085146123e75760018261234d9190613434565b9150600a8561235c91906135ca565b60306123689190613353565b60f81b8183815181106123a4577f4e487b7100000000000000000000000000000000000000000000000000000000600052603260045260246000fd5b60200101907effffffffffffffffffffffffffffffffffffffffffffffffffffffffffffff1916908160001a905350600a856123e091906133a9565b9450612338565b8093505050505b919050565b600073ffffffffffffffffffffffffffffffffffffffff168273ffffffffffffffffffffffffffffffffffffffff161415612463576040517f08c379a000000000000000000000000000000000000000000000000000000000815260040161245a906131a6565b60405180910390fd5b61246c81611678565b156124ac576040517f08c379a00000000000000000000000000000000000000000000000000000000081526004016124a3906130a6565b60405180910390fd5b6124b8600083836120a5565b6001600360008473ffffffffffffffffffffffffffffffffffffffff1673ffffffffffffffffffffffffffffffffffffffff16815260200190815260200160002060008282546125089190613353565b92505081905550816002600083815260200190815260200160002060006101000a81548173ffffffffffffffffffffffffffffffffffffffff021916908373ffffffffffffffffffffffffffffffffffffffff160217905550808273ffffffffffffffffffffffffffffffffffffffff16600073ffffffffffffffffffffffffffffffffffffffff167fddf252ad1be2c89b69c2b068fc378daa952ba7f163c4a11628f55a4df523b3ef60405160405180910390a46125c9600083836120aa565b5050565b6000808273ffffffffffffffffffffffffffffffffffffffff163b119050919050565b8280546125fc9061351e565b90600052602060002090601f01602090048101928261261e5760008555612665565b82601f1061263757805160ff1916838001178555612665565b82800160010185558215612665579182015b82811115612664578251825591602001919060010190612649565b5b5090506126729190612676565b5090565b5b8082111561268f576000816000905550600101612677565b5090565b60006126a66126a1846132a6565b613281565b9050828152602081018484840111156126be57600080fd5b6126c98482856134dc565b509392505050565b6000813590506126e081614096565b92915050565b6000813590506126f5816140ad565b92915050565b60008135905061270a816140c4565b92915050565b60008151905061271f816140c4565b92915050565b600082601f83011261273657600080fd5b8135612746848260208601612693565b91505092915050565b60008135905061275e816140db565b92915050565b60006020828403121561277657600080fd5b6000612784848285016126d1565b91505092915050565b600080604083850312156127a057600080fd5b60006127ae858286016126d1565b92505060206127bf858286016126d1565b9150509250929050565b6000806000606084860312156127de57600080fd5b60006127ec868287016126d1565b93505060206127fd868287016126d1565b925050604061280e8682870161274f565b9150509250925092565b6000806000806080858703121561282e57600080fd5b600061283c878288016126d1565b945050602061284d878288016126d1565b935050604061285e8782880161274f565b925050606085013567ffffffffffffffff81111561287b57600080fd5b61288787828801612725565b91505092959194509250565b600080604083850312156128a657600080fd5b60006128b4858286016126d1565b92505060206128c5858286016126e6565b9150509250929050565b600080604083850312156128e257600080fd5b60006128f0858286016126d1565b92505060206129018582860161274f565b9150509250929050565b60006020828403121561291d57600080fd5b600061292b848285016126fb565b91505092915050565b60006020828403121561294657600080fd5b600061295484828501612710565b91505092915050565b60006020828403121561296f57600080fd5b600061297d8482850161274f565b91505092915050565b60006129928383612e4b565b60208301905092915050565b6129a781613468565b82525050565b60006129b8826132e7565b6129c28185613315565b93506129cd836132d7565b8060005b838110156129fe5781516129e58882612986565b97506129f083613308565b9250506001810190506129d1565b5085935050505092915050565b612a148161347a565b82525050565b6000612a25826132f2565b612a2f8185613326565b9350612a3f8185602086016134eb565b612a48816136b7565b840191505092915050565b6000612a5e826132fd565b612a688185613337565b9350612a788185602086016134eb565b612a81816136b7565b840191505092915050565b6000612a97826132fd565b612aa18185613348565b9350612ab18185602086016134eb565b80840191505092915050565b6000612aca605f83613348565b9150612ad5826136c8565b605f82019050919050565b6000612aed602083613337565b9150612af88261373d565b602082019050919050565b6000612b10603283613337565b9150612b1b82613766565b604082019050919050565b6000612b33602583613337565b9150612b3e826137b5565b604082019050919050565b6000612b56601c83613337565b9150612b6182613804565b602082019050919050565b6000612b79606583613348565b9150612b848261382d565b606582019050919050565b6000612b9c602483613337565b9150612ba7826138c8565b604082019050919050565b6000612bbf601983613337565b9150612bca82613917565b602082019050919050565b6000612be2609983613348565b9150612bed82613940565b609982019050919050565b6000612c05602c83613337565b9150612c1082613a01565b604082019050919050565b6000612c28603883613337565b9150612c3382613a50565b604082019050919050565b6000612c4b602a83613337565b9150612c5682613a9f565b604082019050919050565b6000612c6e602983613337565b9150612c7982613aee565b604082019050919050565b6000612c91602e83613337565b9150612c9c82613b3d565b604082019050919050565b6000612cb4606c83613348565b9150612cbf82613b8c565b606c82019050919050565b6000612cd7608883613348565b9150612ce282613c27565b608882019050919050565b6000612cfa602083613337565b9150612d0582613ce8565b602082019050919050565b6000612d1d603183613337565b9150612d2882613d11565b604082019050919050565b6000612d40602c83613337565b9150612d4b82613d60565b604082019050919050565b6000612d63607583613348565b9150612d6e82613daf565b607582019050919050565b6000612d86607283613348565b9150612d9182613e4a565b607282019050919050565b6000612da9602f83613337565b9150612db482613ee5565b604082019050919050565b6000612dcc602183613337565b9150612dd782613f34565b604082019050919050565b6000612def601d83613348565b9150612dfa82613f83565b601d82019050919050565b6000612e12603183613337565b9150612e1d82613fac565b604082019050919050565b6000612e35607283613348565b9150612e4082613ffb565b607282019050919050565b612e54816134d2565b82525050565b612e63816134d2565b82525050565b6000612e758285612a8c565b9150612e818284612a8c565b91508190509392505050565b6000612e9882612abd565b9150819050919050565b6000612ead82612b6c565b9150819050919050565b6000612ec282612bd5565b9150819050919050565b6000612ed782612ca7565b9150819050919050565b6000612eec82612cca565b9150819050919050565b6000612f0182612d56565b9150819050919050565b6000612f1682612d79565b9150819050919050565b6000612f2b82612de2565b9150612f378284612a8c565b915081905092915050565b6000612f4d82612e28565b9150819050919050565b6000602082019050612f6c600083018461299e565b92915050565b6000608082019050612f87600083018761299e565b612f94602083018661299e565b612fa16040830185612e5a565b8181036060830152612fb38184612a1a565b905095945050505050565b6000604082019050612fd3600083018561299e565b612fe06020830184612e5a565b9392505050565b6000602082019050818103600083015261300181846129ad565b905092915050565b600060208201905061301e6000830184612a0b565b92915050565b6000602082019050818103600083015261303e8184612a53565b905092915050565b6000602082019050818103600083015261305f81612ae0565b9050919050565b6000602082019050818103600083015261307f81612b03565b9050919050565b6000602082019050818103600083015261309f81612b26565b9050919050565b600060208201905081810360008301526130bf81612b49565b9050919050565b600060208201905081810360008301526130df81612b8f565b9050919050565b600060208201905081810360008301526130ff81612bb2565b9050919050565b6000602082019050818103600083015261311f81612bf8565b9050919050565b6000602082019050818103600083015261313f81612c1b565b9050919050565b6000602082019050818103600083015261315f81612c3e565b9050919050565b6000602082019050818103600083015261317f81612c61565b9050919050565b6000602082019050818103600083015261319f81612c84565b9050919050565b600060208201905081810360008301526131bf81612ced565b9050919050565b600060208201905081810360008301526131df81612d10565b9050919050565b600060208201905081810360008301526131ff81612d33565b9050919050565b6000602082019050818103600083015261321f81612d9c565b9050919050565b6000602082019050818103600083015261323f81612dbf565b9050919050565b6000602082019050818103600083015261325f81612e05565b9050919050565b600060208201905061327b6000830184612e5a565b92915050565b600061328b61329c565b90506132978282613550565b919050565b6000604051905090565b600067ffffffffffffffff8211156132c1576132c0613688565b5b6132ca826136b7565b9050602081019050919050565b6000819050602082019050919050565b600081519050919050565b600081519050919050565b600081519050919050565b6000602082019050919050565b600082825260208201905092915050565b600082825260208201905092915050565b600082825260208201905092915050565b600081905092915050565b600061335e826134d2565b9150613369836134d2565b9250827fffffffffffffffffffffffffffffffffffffffffffffffffffffffffffffffff0382111561339e5761339d6135fb565b5b828201905092915050565b60006133b4826134d2565b91506133bf836134d2565b9250826133cf576133ce61362a565b5b828204905092915050565b60006133e5826134d2565b91506133f0836134d2565b9250817fffffffffffffffffffffffffffffffffffffffffffffffffffffffffffffffff0483118215151615613429576134286135fb565b5b828202905092915050565b600061343f826134d2565b915061344a836134d2565b92508282101561345d5761345c6135fb565b5b828203905092915050565b6000613473826134b2565b9050919050565b60008115159050919050565b60007fffffffff0000000000000000000000000000000000000000000000000000000082169050919050565b600073ffffffffffffffffffffffffffffffffffffffff82169050919050565b6000819050919050565b82818337600083830152505050565b60005b838110156135095780820151818401526020810190506134ee565b83811115613518576000848401525b50505050565b6000600282049050600182168061353657607f821691505b6020821081141561354a57613549613659565b5b50919050565b613559826136b7565b810181811067ffffffffffffffff8211171561357857613577613688565b5b80604052505050565b600061358c826134d2565b91507fffffffffffffffffffffffffffffffffffffffffffffffffffffffffffffffff8214156135bf576135be6135fb565b5b600182019050919050565b60006135d5826134d2565b91506135e0836134d2565b9250826135f0576135ef61362a565b5b828206905092915050565b7f4e487b7100000000000000000000000000000000000000000000000000000000600052601160045260246000fd5b7f4e487b7100000000000000000000000000000000000000000000000000000000600052601260045260246000fd5b7f4e487b7100000000000000000000000000000000000000000000000000000000600052602260045260246000fd5b7f4e487b7100000000000000000000000000000000000000000000000000000000600052604160045260246000fd5b6000601f19601f8301169050919050565b7f7b226e616d65223a20225065616b222c20226465736372697074696f6e223a2060008201527f22412062656175746966756c207065616b222c2022696d616765223a2022687460208201527f7470733a2f2f692e696d6775722e636f6d2f494a717a3342582e6a7067227d00604082015250565b7f54686973204e46542063616e206e6f206c6f6e676572206265206d696e746564600082015250565b7f4552433732313a207472616e7366657220746f206e6f6e20455243373231526560008201527f63656976657220696d706c656d656e7465720000000000000000000000000000602082015250565b7f4552433732313a207472616e736665722066726f6d20696e636f72726563742060008201527f6f776e6572000000000000000000000000000000000000000000000000000000602082015250565b7f4552433732313a20746f6b656e20616c7265616479206d696e74656400000000600082015250565b7f7b226e616d65223a2022426967204c656674222c20226465736372697074696f60008201527f6e223a2022446f206e6f74207475726e2072696768742e222c2022696d61676560208201527f223a202268747470733a2f2f692e696d6775722e636f6d2f6878397a5944792e60408201527f6a7067227d000000000000000000000000000000000000000000000000000000606082015250565b7f4552433732313a207472616e7366657220746f20746865207a65726f2061646460008201527f7265737300000000000000000000000000000000000000000000000000000000602082015250565b7f4552433732313a20617070726f766520746f2063616c6c657200000000000000600082015250565b7f7b226e616d65223a2022487567652042617272656c222c20226465736372697060008201527f74696f6e223a2022576176652077697468206120687567652062617272656c2e60208201527f204920776f756c64206e6f742077616e7420746f20626520696e20746865206960408201527f6d70616374207a6f6e652e222c2022696d616765223a202268747470733a2f2f60608201527f692e696d6775722e636f6d2f5762383562426e2e6a7067227d00000000000000608082015250565b7f4552433732313a206f70657261746f7220717565727920666f72206e6f6e657860008201527f697374656e7420746f6b656e0000000000000000000000000000000000000000602082015250565b7f4552433732313a20617070726f76652063616c6c6572206973206e6f74206f7760008201527f6e6572206e6f7220617070726f76656420666f7220616c6c0000000000000000602082015250565b7f4552433732313a2062616c616e636520717565727920666f7220746865207a6560008201527f726f206164647265737300000000000000000000000000000000000000000000602082015250565b7f4552433732313a206f776e657220717565727920666f72206e6f6e657869737460008201527f656e7420746f6b656e0000000000000000000000000000000000000000000000602082015250565b7f45524337323155524953746f726167653a2055524920736574206f66206e6f6e60008201527f6578697374656e7420746f6b656e000000000000000000000000000000000000602082015250565b7f7b226e616d65223a2022506970656c696e653f222c202264657363726970746960008201527f6f6e223a2022497320746869732042616e7a616920506970656c696e653f222c60208201527f2022696d616765223a202268747470733a2f2f692e696d6775722e636f6d2f7360408201527f444957396f312e6a7067227d0000000000000000000000000000000000000000606082015250565b7f7b226e616d65223a2022536f6c6974617279222c20226465736372697074696f60008201527f6e223a2022536f6c6f20737572666572206f6e206120717565737420746f206360208201527f61746368207468652072696465206f6620686973206c6966652e222c2022696d60408201527f616765223a202268747470733a2f2f692e696d6775722e636f6d2f63464c593860608201527f516c2e6a7067227d000000000000000000000000000000000000000000000000608082015250565b7f4552433732313a206d696e7420746f20746865207a65726f2061646472657373600082015250565b7f45524337323155524953746f726167653a2055524920717565727920666f722060008201527f6e6f6e6578697374656e7420746f6b656e000000000000000000000000000000602082015250565b7f4552433732313a20617070726f76656420717565727920666f72206e6f6e657860008201527f697374656e7420746f6b656e0000000000000000000000000000000000000000602082015250565b7f7b226e616d65223a202254776f20467269656e6473222c20226465736372697060008201527f74696f6e223a202254776f20667269656e64732077616c6b696e6720746f207460208201527f68652073757266222c2022696d616765223a202268747470733a2f2f692e696d60408201527f6775722e636f6d2f724370634158562e6a7067227d0000000000000000000000606082015250565b7f7b226e616d65223a202257617465726c696e65222c202264657363726970746960008201527f6f6e223a2022576865726520746865207761746572206d65657473207468652060208201527f73616e64222c2022696d616765223a202268747470733a2f2f692e696d67757260408201527f2e636f6d2f673879547347762e6a7067227d0000000000000000000000000000606082015250565b7f4552433732314d657461646174613a2055524920717565727920666f72206e6f60008201527f6e6578697374656e7420746f6b656e0000000000000000000000000000000000602082015250565b7f4552433732313a20617070726f76616c20746f2063757272656e74206f776e6560008201527f7200000000000000000000000000000000000000000000000000000000000000602082015250565b7f646174613a6170706c69636174696f6e2f6a736f6e3b6261736536342c000000600082015250565b7f4552433732313a207472616e736665722063616c6c6572206973206e6f74206f60008201527f776e6572206e6f7220617070726f766564000000000000000000000000000000602082015250565b7f7b226e616d65223a2022426f617264222c20226465736372697074696f6e223a60008201527f202253757266626f61726420737469636b696e67206f7574206f66207468652060208201527f73616e64222c2022696d616765223a202268747470733a2f2f692e696d67757260408201527f2e636f6d2f50614b7a4946772e6a7067227d0000000000000000000000000000606082015250565b61409f81613468565b81146140aa57600080fd5b50565b6140b68161347a565b81146140c157600080fd5b50565b6140cd81613486565b81146140d857600080fd5b50565b6140e4816134d2565b81146140ef57600080fd5b5056fe4142434445464748494a4b4c4d4e4f505152535455565758595a6162636465666768696a6b6c6d6e6f707172737475767778797a303132333435363738392b2fa2646970667358221220806e493cb97e391f2919fd9675e9ceb7dc82fb4231f2e596a2f1c8f68b206cde64736f6c63430008010033",
  "linkReferences": {},
  "deployedLinkReferences": {}
}